{
  "contractName": "MyNFTCollection",
  "abi": [
    {
      "inputs": [],
      "stateMutability": "nonpayable",
      "type": "constructor"
    },
    {
      "anonymous": false,
      "inputs": [
        {
          "indexed": true,
          "internalType": "address",
          "name": "owner",
          "type": "address"
        },
        {
          "indexed": true,
          "internalType": "address",
          "name": "approved",
          "type": "address"
        },
        {
          "indexed": true,
          "internalType": "uint256",
          "name": "tokenId",
          "type": "uint256"
        }
      ],
      "name": "Approval",
      "type": "event"
    },
    {
      "anonymous": false,
      "inputs": [
        {
          "indexed": true,
          "internalType": "address",
          "name": "owner",
          "type": "address"
        },
        {
          "indexed": true,
          "internalType": "address",
          "name": "operator",
          "type": "address"
        },
        {
          "indexed": false,
          "internalType": "bool",
          "name": "approved",
          "type": "bool"
        }
      ],
      "name": "ApprovalForAll",
      "type": "event"
    },
    {
      "anonymous": false,
      "inputs": [
        {
          "indexed": true,
          "internalType": "address",
          "name": "from",
          "type": "address"
        },
        {
          "indexed": true,
          "internalType": "address",
          "name": "to",
          "type": "address"
        },
        {
          "indexed": true,
          "internalType": "uint256",
          "name": "tokenId",
          "type": "uint256"
        }
      ],
      "name": "Transfer",
      "type": "event"
    },
    {
      "inputs": [],
      "name": "CREATOR",
      "outputs": [
        {
          "internalType": "address",
          "name": "",
          "type": "address"
        }
      ],
      "stateMutability": "view",
      "type": "function",
      "constant": true
    },
    {
      "inputs": [],
      "name": "MAX_ELEMENTS",
      "outputs": [
        {
          "internalType": "uint256",
          "name": "",
          "type": "uint256"
        }
      ],
      "stateMutability": "view",
      "type": "function",
      "constant": true
    },
    {
      "inputs": [],
      "name": "PRICE",
      "outputs": [
        {
          "internalType": "uint256",
          "name": "",
          "type": "uint256"
        }
      ],
      "stateMutability": "view",
      "type": "function",
      "constant": true
    },
    {
      "inputs": [
        {
          "internalType": "address",
          "name": "to",
          "type": "address"
        },
        {
          "internalType": "uint256",
          "name": "tokenId",
          "type": "uint256"
        }
      ],
      "name": "approve",
      "outputs": [],
      "stateMutability": "nonpayable",
      "type": "function"
    },
    {
      "inputs": [
        {
          "internalType": "address",
          "name": "owner",
          "type": "address"
        }
      ],
      "name": "balanceOf",
      "outputs": [
        {
          "internalType": "uint256",
          "name": "",
          "type": "uint256"
        }
      ],
      "stateMutability": "view",
      "type": "function",
      "constant": true
    },
    {
      "inputs": [
        {
          "internalType": "uint256",
          "name": "tokenId",
          "type": "uint256"
        }
      ],
      "name": "getApproved",
      "outputs": [
        {
          "internalType": "address",
          "name": "",
          "type": "address"
        }
      ],
      "stateMutability": "view",
      "type": "function",
      "constant": true
    },
    {
      "inputs": [
        {
          "internalType": "address",
          "name": "owner",
          "type": "address"
        },
        {
          "internalType": "address",
          "name": "operator",
          "type": "address"
        }
      ],
      "name": "isApprovedForAll",
      "outputs": [
        {
          "internalType": "bool",
          "name": "",
          "type": "bool"
        }
      ],
      "stateMutability": "view",
      "type": "function",
      "constant": true
    },
    {
      "inputs": [],
      "name": "name",
      "outputs": [
        {
          "internalType": "string",
          "name": "",
          "type": "string"
        }
      ],
      "stateMutability": "view",
      "type": "function",
      "constant": true
    },
    {
      "inputs": [
        {
          "internalType": "uint256",
          "name": "tokenId",
          "type": "uint256"
        }
      ],
      "name": "ownerOf",
      "outputs": [
        {
          "internalType": "address",
          "name": "",
          "type": "address"
        }
      ],
      "stateMutability": "view",
      "type": "function",
      "constant": true
    },
    {
      "inputs": [
        {
          "internalType": "address",
          "name": "from",
          "type": "address"
        },
        {
          "internalType": "address",
          "name": "to",
          "type": "address"
        },
        {
          "internalType": "uint256",
          "name": "tokenId",
          "type": "uint256"
        }
      ],
      "name": "safeTransferFrom",
      "outputs": [],
      "stateMutability": "nonpayable",
      "type": "function"
    },
    {
      "inputs": [
        {
          "internalType": "address",
          "name": "from",
          "type": "address"
        },
        {
          "internalType": "address",
          "name": "to",
          "type": "address"
        },
        {
          "internalType": "uint256",
          "name": "tokenId",
          "type": "uint256"
        },
        {
          "internalType": "bytes",
          "name": "_data",
          "type": "bytes"
        }
      ],
      "name": "safeTransferFrom",
      "outputs": [],
      "stateMutability": "nonpayable",
      "type": "function"
    },
    {
      "inputs": [
        {
          "internalType": "address",
          "name": "operator",
          "type": "address"
        },
        {
          "internalType": "bool",
          "name": "approved",
          "type": "bool"
        }
      ],
      "name": "setApprovalForAll",
      "outputs": [],
      "stateMutability": "nonpayable",
      "type": "function"
    },
    {
      "inputs": [
        {
          "internalType": "bytes4",
          "name": "interfaceId",
          "type": "bytes4"
        }
      ],
      "name": "supportsInterface",
      "outputs": [
        {
          "internalType": "bool",
          "name": "",
          "type": "bool"
        }
      ],
      "stateMutability": "view",
      "type": "function",
      "constant": true
    },
    {
      "inputs": [],
      "name": "symbol",
      "outputs": [
        {
          "internalType": "string",
          "name": "",
          "type": "string"
        }
      ],
      "stateMutability": "view",
      "type": "function",
      "constant": true
    },
    {
      "inputs": [
        {
          "internalType": "uint256",
          "name": "index",
          "type": "uint256"
        }
      ],
      "name": "tokenByIndex",
      "outputs": [
        {
          "internalType": "uint256",
          "name": "",
          "type": "uint256"
        }
      ],
      "stateMutability": "view",
      "type": "function",
      "constant": true
    },
    {
      "inputs": [
        {
          "internalType": "address",
          "name": "owner",
          "type": "address"
        },
        {
          "internalType": "uint256",
          "name": "index",
          "type": "uint256"
        }
      ],
      "name": "tokenOfOwnerByIndex",
      "outputs": [
        {
          "internalType": "uint256",
          "name": "",
          "type": "uint256"
        }
      ],
      "stateMutability": "view",
      "type": "function",
      "constant": true
    },
    {
      "inputs": [
        {
          "internalType": "uint256",
          "name": "tokenId",
          "type": "uint256"
        }
      ],
      "name": "tokenURI",
      "outputs": [
        {
          "internalType": "string",
          "name": "",
          "type": "string"
        }
      ],
      "stateMutability": "view",
      "type": "function",
      "constant": true
    },
    {
      "inputs": [],
      "name": "token_count",
      "outputs": [
        {
          "internalType": "uint256",
          "name": "",
          "type": "uint256"
        }
      ],
      "stateMutability": "view",
      "type": "function",
      "constant": true
    },
    {
      "inputs": [],
      "name": "totalSupply",
      "outputs": [
        {
          "internalType": "uint256",
          "name": "",
          "type": "uint256"
        }
      ],
      "stateMutability": "view",
      "type": "function",
      "constant": true
    },
    {
      "inputs": [
        {
          "internalType": "address",
          "name": "from",
          "type": "address"
        },
        {
          "internalType": "address",
          "name": "to",
          "type": "address"
        },
        {
          "internalType": "uint256",
          "name": "tokenId",
          "type": "uint256"
        }
      ],
      "name": "transferFrom",
      "outputs": [],
      "stateMutability": "nonpayable",
      "type": "function"
    },
    {
      "inputs": [],
      "name": "totalMint",
      "outputs": [
        {
          "internalType": "uint256",
          "name": "",
          "type": "uint256"
        }
      ],
      "stateMutability": "view",
      "type": "function",
      "constant": true
    },
    {
      "inputs": [
        {
          "internalType": "address",
          "name": "_to",
          "type": "address"
        },
        {
          "internalType": "uint256",
          "name": "_count",
          "type": "uint256"
        }
      ],
      "name": "mint",
      "outputs": [],
      "stateMutability": "payable",
      "type": "function",
      "payable": true
    },
    {
      "inputs": [],
      "name": "withdrawAll",
      "outputs": [],
      "stateMutability": "nonpayable",
      "type": "function"
    }
  ],
  "bytecode": "0x60806040526101f4600a55662386f26fc10000600b5573b302033eb1306d1d6531c15c1a364f6e8352a1e2600c60006101000a81548173ffffffffffffffffffffffffffffffffffffffff021916908373ffffffffffffffffffffffffffffffffffffffff1602179055503480156200007757600080fd5b506040518060400160405280600681526020017f4d79204e465400000000000000000000000000000000000000000000000000008152506040518060400160405280600481526020017f4d4e4654000000000000000000000000000000000000000000000000000000008152508160009080519060200190620000fc9291906200011e565b508060019080519060200190620001159291906200011e565b50505062000233565b8280546200012c90620001fd565b90600052602060002090601f0160209004810192826200015057600085556200019c565b82601f106200016b57805160ff19168380011785556200019c565b828001600101855582156200019c579182015b828111156200019b5782518255916020019190600101906200017e565b5b509050620001ab9190620001af565b5090565b5b80821115620001ca576000816000905550600101620001b0565b5090565b7f4e487b7100000000000000000000000000000000000000000000000000000000600052602260045260246000fd5b600060028204905060018216806200021657607f821691505b602082108114156200022d576200022c620001ce565b5b50919050565b6135d680620002436000396000f3fe6080604052600436106101405760003560e01c80634f6ccce7116100b657806395d89b411161006f57806395d89b4114610463578063a22cb4651461048e578063b88d4fde146104b7578063c87b56dd146104e0578063e4fbb6091461051d578063e985e9c51461054857610140565b80634f6ccce71461033f57806359a7715a1461037c5780636352211e146103a757806370a08231146103e4578063853828b6146104215780638d859f3e1461043857610140565b806323b161ab1161010857806323b161ab1461023e57806323b872dd146102695780632f745c59146102925780633502a716146102cf57806340c10f19146102fa57806342842e0e1461031657610140565b806301ffc9a71461014557806306fdde0314610182578063081812fc146101ad578063095ea7b3146101ea57806318160ddd14610213575b600080fd5b34801561015157600080fd5b5061016c60048036038101906101679190612179565b610585565b60405161017991906121c1565b60405180910390f35b34801561018e57600080fd5b506101976105ff565b6040516101a49190612275565b60405180910390f35b3480156101b957600080fd5b506101d460048036038101906101cf91906122cd565b610691565b6040516101e1919061233b565b60405180910390f35b3480156101f657600080fd5b50610211600480360381019061020c9190612382565b610716565b005b34801561021f57600080fd5b5061022861082e565b60405161023591906123d1565b60405180910390f35b34801561024a57600080fd5b5061025361083b565b60405161026091906123d1565b60405180910390f35b34801561027557600080fd5b50610290600480360381019061028b91906123ec565b610841565b005b34801561029e57600080fd5b506102b960048036038101906102b49190612382565b6108a1565b6040516102c691906123d1565b60405180910390f35b3480156102db57600080fd5b506102e4610946565b6040516102f191906123d1565b60405180910390f35b610314600480360381019061030f9190612382565b61094c565b005b34801561032257600080fd5b5061033d600480360381019061033891906123ec565b610a6a565b005b34801561034b57600080fd5b50610366600480360381019061036191906122cd565b610a8a565b60405161037391906123d1565b60405180910390f35b34801561038857600080fd5b50610391610afb565b60405161039e91906123d1565b60405180910390f35b3480156103b357600080fd5b506103ce60048036038101906103c991906122cd565b610b0a565b6040516103db919061233b565b60405180910390f35b3480156103f057600080fd5b5061040b6004803603810190610406919061243f565b610bbc565b60405161041891906123d1565b60405180910390f35b34801561042d57600080fd5b50610436610c74565b005b34801561044457600080fd5b5061044d610d45565b60405161045a91906123d1565b60405180910390f35b34801561046f57600080fd5b50610478610d4b565b6040516104859190612275565b60405180910390f35b34801561049a57600080fd5b506104b560048036038101906104b09190612498565b610ddd565b005b3480156104c357600080fd5b506104de60048036038101906104d9919061260d565b610df3565b005b3480156104ec57600080fd5b50610507600480360381019061050291906122cd565b610e55565b6040516105149190612275565b60405180910390f35b34801561052957600080fd5b50610532610efc565b60405161053f919061233b565b60405180910390f35b34801561055457600080fd5b5061056f600480360381019061056a9190612690565b610f22565b60405161057c91906121c1565b60405180910390f35b60007f780e9d63000000000000000000000000000000000000000000000000000000007bffffffffffffffffffffffffffffffffffffffffffffffffffffffff1916827bffffffffffffffffffffffffffffffffffffffffffffffffffffffff191614806105f857506105f782610fb6565b5b9050919050565b60606000805461060e906126ff565b80601f016020809104026020016040519081016040528092919081815260200182805461063a906126ff565b80156106875780601f1061065c57610100808354040283529160200191610687565b820191906000526020600020905b81548152906001019060200180831161066a57829003601f168201915b5050505050905090565b600061069c82611098565b6106db576040517f08c379a00000000000000000000000000000000000000000000000000000000081526004016106d2906127a3565b60405180910390fd5b6004600083815260200190815260200160002060009054906101000a900473ffffffffffffffffffffffffffffffffffffffff169050919050565b600061072182610b0a565b90508073ffffffffffffffffffffffffffffffffffffffff168373ffffffffffffffffffffffffffffffffffffffff161415610792576040517f08c379a000000000000000000000000000000000000000000000000000000000815260040161078990612835565b60405180910390fd5b8073ffffffffffffffffffffffffffffffffffffffff166107b1611104565b73ffffffffffffffffffffffffffffffffffffffff1614806107e057506107df816107da611104565b610f22565b5b61081f576040517f08c379a0000000000000000000000000000000000000000000000000000000008152600401610816906128c7565b60405180910390fd5b610829838361110c565b505050565b6000600880549050905090565b600d5481565b61085261084c611104565b826111c5565b610891576040517f08c379a000000000000000000000000000000000000000000000000000000000815260040161088890612959565b60405180910390fd5b61089c8383836112a3565b505050565b60006108ac83610bbc565b82106108ed576040517f08c379a00000000000000000000000000000000000000000000000000000000081526004016108e4906129eb565b60405180910390fd5b600660008473ffffffffffffffffffffffffffffffffffffffff1673ffffffffffffffffffffffffffffffffffffffff168152602001908152602001600020600083815260200190815260200160002054905092915050565b600a5481565b60006109566114ff565b9050600a5482826109679190612a3a565b11156109a8576040517f08c379a000000000000000000000000000000000000000000000000000000000815260040161099f90612adc565b60405180910390fd5b600a548111156109ed576040517f08c379a00000000000000000000000000000000000000000000000000000000081526004016109e490612b48565b60405180910390fd5b81600b546109fb9190612b68565b341015610a3d576040517f08c379a0000000000000000000000000000000000000000000000000000000008152600401610a3490612c0e565b60405180910390fd5b60005b82811015610a6457610a5184611510565b8080610a5c90612c2e565b915050610a40565b50505050565b610a8583838360405180602001604052806000815250610df3565b505050565b6000610a9461082e565b8210610ad5576040517f08c379a0000000000000000000000000000000000000000000000000000000008152600401610acc90612ce9565b60405180910390fd5b60088281548110610ae957610ae8612d09565b5b90600052602060002001549050919050565b6000610b056114ff565b905090565b6000806002600084815260200190815260200160002060009054906101000a900473ffffffffffffffffffffffffffffffffffffffff169050600073ffffffffffffffffffffffffffffffffffffffff168173ffffffffffffffffffffffffffffffffffffffff161415610bb3576040517f08c379a0000000000000000000000000000000000000000000000000000000008152600401610baa90612daa565b60405180910390fd5b80915050919050565b60008073ffffffffffffffffffffffffffffffffffffffff168273ffffffffffffffffffffffffffffffffffffffff161415610c2d576040517f08c379a0000000000000000000000000000000000000000000000000000000008152600401610c2490612e3c565b60405180910390fd5b600360008373ffffffffffffffffffffffffffffffffffffffff1673ffffffffffffffffffffffffffffffffffffffff168152602001908152602001600020549050919050565b6000600c60009054906101000a900473ffffffffffffffffffffffffffffffffffffffff1673ffffffffffffffffffffffffffffffffffffffff1647604051610cbc90612e8d565b60006040518083038185875af1925050503d8060008114610cf9576040519150601f19603f3d011682016040523d82523d6000602084013e610cfe565b606091505b5050905080610d42576040517f08c379a0000000000000000000000000000000000000000000000000000000008152600401610d3990612eee565b60405180910390fd5b50565b600b5481565b606060018054610d5a906126ff565b80601f0160208091040260200160405190810160405280929190818152602001828054610d86906126ff565b8015610dd35780601f10610da857610100808354040283529160200191610dd3565b820191906000526020600020905b815481529060010190602001808311610db657829003601f168201915b5050505050905090565b610def610de8611104565b8383611534565b5050565b610e04610dfe611104565b836111c5565b610e43576040517f08c379a0000000000000000000000000000000000000000000000000000000008152600401610e3a90612959565b60405180910390fd5b610e4f848484846116a1565b50505050565b6060610e6082611098565b610e9f576040517f08c379a0000000000000000000000000000000000000000000000000000000008152600401610e9690612f80565b60405180910390fd5b6000610ea96116fd565b90506000815111610ec95760405180602001604052806000815250610ef4565b80610ed38461171d565b604051602001610ee4929190612fdc565b6040516020818303038152906040525b915050919050565b600c60009054906101000a900473ffffffffffffffffffffffffffffffffffffffff1681565b6000600560008473ffffffffffffffffffffffffffffffffffffffff1673ffffffffffffffffffffffffffffffffffffffff16815260200190815260200160002060008373ffffffffffffffffffffffffffffffffffffffff1673ffffffffffffffffffffffffffffffffffffffff16815260200190815260200160002060009054906101000a900460ff16905092915050565b60007f80ac58cd000000000000000000000000000000000000000000000000000000007bffffffffffffffffffffffffffffffffffffffffffffffffffffffff1916827bffffffffffffffffffffffffffffffffffffffffffffffffffffffff1916148061108157507f5b5e139f000000000000000000000000000000000000000000000000000000007bffffffffffffffffffffffffffffffffffffffffffffffffffffffff1916827bffffffffffffffffffffffffffffffffffffffffffffffffffffffff1916145b8061109157506110908261187e565b5b9050919050565b60008073ffffffffffffffffffffffffffffffffffffffff166002600084815260200190815260200160002060009054906101000a900473ffffffffffffffffffffffffffffffffffffffff1673ffffffffffffffffffffffffffffffffffffffff1614159050919050565b600033905090565b816004600083815260200190815260200160002060006101000a81548173ffffffffffffffffffffffffffffffffffffffff021916908373ffffffffffffffffffffffffffffffffffffffff160217905550808273ffffffffffffffffffffffffffffffffffffffff1661117f83610b0a565b73ffffffffffffffffffffffffffffffffffffffff167f8c5be1e5ebec7d5bd14f71427d1e84f3dd0314c0f7b2291e5b200ac8c7c3b92560405160405180910390a45050565b60006111d082611098565b61120f576040517f08c379a000000000000000000000000000000000000000000000000000000000815260040161120690613072565b60405180910390fd5b600061121a83610b0a565b90508073ffffffffffffffffffffffffffffffffffffffff168473ffffffffffffffffffffffffffffffffffffffff16148061128957508373ffffffffffffffffffffffffffffffffffffffff1661127184610691565b73ffffffffffffffffffffffffffffffffffffffff16145b8061129a57506112998185610f22565b5b91505092915050565b8273ffffffffffffffffffffffffffffffffffffffff166112c382610b0a565b73ffffffffffffffffffffffffffffffffffffffff1614611319576040517f08c379a000000000000000000000000000000000000000000000000000000000815260040161131090613104565b60405180910390fd5b600073ffffffffffffffffffffffffffffffffffffffff168273ffffffffffffffffffffffffffffffffffffffff161415611389576040517f08c379a000000000000000000000000000000000000000000000000000000000815260040161138090613196565b60405180910390fd5b6113948383836118e8565b61139f60008261110c565b6001600360008573ffffffffffffffffffffffffffffffffffffffff1673ffffffffffffffffffffffffffffffffffffffff16815260200190815260200160002060008282546113ef91906131b6565b925050819055506001600360008473ffffffffffffffffffffffffffffffffffffffff1673ffffffffffffffffffffffffffffffffffffffff16815260200190815260200160002060008282546114469190612a3a565b92505081905550816002600083815260200190815260200160002060006101000a81548173ffffffffffffffffffffffffffffffffffffffff021916908373ffffffffffffffffffffffffffffffffffffffff160217905550808273ffffffffffffffffffffffffffffffffffffffff168473ffffffffffffffffffffffffffffffffffffffff167fddf252ad1be2c89b69c2b068fc378daa952ba7f163c4a11628f55a4df523b3ef60405160405180910390a4505050565b600061150b600e6119fc565b905090565b600061151a6114ff565b9050611526600e611a0a565b6115308282611a20565b5050565b8173ffffffffffffffffffffffffffffffffffffffff168373ffffffffffffffffffffffffffffffffffffffff1614156115a3576040517f08c379a000000000000000000000000000000000000000000000000000000000815260040161159a90613236565b60405180910390fd5b80600560008573ffffffffffffffffffffffffffffffffffffffff1673ffffffffffffffffffffffffffffffffffffffff16815260200190815260200160002060008473ffffffffffffffffffffffffffffffffffffffff1673ffffffffffffffffffffffffffffffffffffffff16815260200190815260200160002060006101000a81548160ff0219169083151502179055508173ffffffffffffffffffffffffffffffffffffffff168373ffffffffffffffffffffffffffffffffffffffff167f17307eab39ab6107e8899845ad3d59bd9653f200f220920489ca2b5937696c318360405161169491906121c1565b60405180910390a3505050565b6116ac8484846112a3565b6116b884848484611a3e565b6116f7576040517f08c379a00000000000000000000000000000000000000000000000000000000081526004016116ee906132c8565b60405180910390fd5b50505050565b60606040518060600160405280603d8152602001613564603d9139905090565b60606000821415611765576040518060400160405280600181526020017f30000000000000000000000000000000000000000000000000000000000000008152509050611879565b600082905060005b6000821461179757808061178090612c2e565b915050600a826117909190613317565b915061176d565b60008167ffffffffffffffff8111156117b3576117b26124e2565b5b6040519080825280601f01601f1916602001820160405280156117e55781602001600182028036833780820191505090505b5090505b60008514611872576001826117fe91906131b6565b9150600a8561180d9190613348565b60306118199190612a3a565b60f81b81838151811061182f5761182e612d09565b5b60200101907effffffffffffffffffffffffffffffffffffffffffffffffffffffffffffff1916908160001a905350600a8561186b9190613317565b94506117e9565b8093505050505b919050565b60007f01ffc9a7000000000000000000000000000000000000000000000000000000007bffffffffffffffffffffffffffffffffffffffffffffffffffffffff1916827bffffffffffffffffffffffffffffffffffffffffffffffffffffffff1916149050919050565b6118f3838383611bc6565b600073ffffffffffffffffffffffffffffffffffffffff168373ffffffffffffffffffffffffffffffffffffffff1614156119365761193181611bcb565b611975565b8173ffffffffffffffffffffffffffffffffffffffff168373ffffffffffffffffffffffffffffffffffffffff1614611974576119738382611c14565b5b5b600073ffffffffffffffffffffffffffffffffffffffff168273ffffffffffffffffffffffffffffffffffffffff1614156119b8576119b381611d81565b6119f7565b8273ffffffffffffffffffffffffffffffffffffffff168273ffffffffffffffffffffffffffffffffffffffff16146119f6576119f58282611e52565b5b5b505050565b600081600001549050919050565b6001816000016000828254019250508190555050565b611a3a828260405180602001604052806000815250611ed1565b5050565b6000611a5f8473ffffffffffffffffffffffffffffffffffffffff16611f2c565b15611bb9578373ffffffffffffffffffffffffffffffffffffffff1663150b7a02611a88611104565b8786866040518563ffffffff1660e01b8152600401611aaa94939291906133ce565b6020604051808303816000875af1925050508015611ae657506040513d601f19601f82011682018060405250810190611ae3919061342f565b60015b611b69573d8060008114611b16576040519150601f19603f3d011682016040523d82523d6000602084013e611b1b565b606091505b50600081511415611b61576040517f08c379a0000000000000000000000000000000000000000000000000000000008152600401611b58906132c8565b60405180910390fd5b805181602001fd5b63150b7a0260e01b7bffffffffffffffffffffffffffffffffffffffffffffffffffffffff1916817bffffffffffffffffffffffffffffffffffffffffffffffffffffffff191614915050611bbe565b600190505b949350505050565b505050565b6008805490506009600083815260200190815260200160002081905550600881908060018154018082558091505060019003906000526020600020016000909190919091505550565b60006001611c2184610bbc565b611c2b91906131b6565b9050600060076000848152602001908152602001600020549050818114611d10576000600660008673ffffffffffffffffffffffffffffffffffffffff1673ffffffffffffffffffffffffffffffffffffffff168152602001908152602001600020600084815260200190815260200160002054905080600660008773ffffffffffffffffffffffffffffffffffffffff1673ffffffffffffffffffffffffffffffffffffffff168152602001908152602001600020600084815260200190815260200160002081905550816007600083815260200190815260200160002081905550505b6007600084815260200190815260200160002060009055600660008573ffffffffffffffffffffffffffffffffffffffff1673ffffffffffffffffffffffffffffffffffffffff16815260200190815260200160002060008381526020019081526020016000206000905550505050565b60006001600880549050611d9591906131b6565b9050600060096000848152602001908152602001600020549050600060088381548110611dc557611dc4612d09565b5b906000526020600020015490508060088381548110611de757611de6612d09565b5b906000526020600020018190555081600960008381526020019081526020016000208190555060096000858152602001908152602001600020600090556008805480611e3657611e3561345c565b5b6001900381819060005260206000200160009055905550505050565b6000611e5d83610bbc565b905081600660008573ffffffffffffffffffffffffffffffffffffffff1673ffffffffffffffffffffffffffffffffffffffff168152602001908152602001600020600083815260200190815260200160002081905550806007600084815260200190815260200160002081905550505050565b611edb8383611f3f565b611ee86000848484611a3e565b611f27576040517f08c379a0000000000000000000000000000000000000000000000000000000008152600401611f1e906132c8565b60405180910390fd5b505050565b600080823b905060008111915050919050565b600073ffffffffffffffffffffffffffffffffffffffff168273ffffffffffffffffffffffffffffffffffffffff161415611faf576040517f08c379a0000000000000000000000000000000000000000000000000000000008152600401611fa6906134d7565b60405180910390fd5b611fb881611098565b15611ff8576040517f08c379a0000000000000000000000000000000000000000000000000000000008152600401611fef90613543565b60405180910390fd5b612004600083836118e8565b6001600360008473ffffffffffffffffffffffffffffffffffffffff1673ffffffffffffffffffffffffffffffffffffffff16815260200190815260200160002060008282546120549190612a3a565b92505081905550816002600083815260200190815260200160002060006101000a81548173ffffffffffffffffffffffffffffffffffffffff021916908373ffffffffffffffffffffffffffffffffffffffff160217905550808273ffffffffffffffffffffffffffffffffffffffff16600073ffffffffffffffffffffffffffffffffffffffff167fddf252ad1be2c89b69c2b068fc378daa952ba7f163c4a11628f55a4df523b3ef60405160405180910390a45050565b6000604051905090565b600080fd5b600080fd5b60007fffffffff0000000000000000000000000000000000000000000000000000000082169050919050565b61215681612121565b811461216157600080fd5b50565b6000813590506121738161214d565b92915050565b60006020828403121561218f5761218e612117565b5b600061219d84828501612164565b91505092915050565b60008115159050919050565b6121bb816121a6565b82525050565b60006020820190506121d660008301846121b2565b92915050565b600081519050919050565b600082825260208201905092915050565b60005b838110156122165780820151818401526020810190506121fb565b83811115612225576000848401525b50505050565b6000601f19601f8301169050919050565b6000612247826121dc565b61225181856121e7565b93506122618185602086016121f8565b61226a8161222b565b840191505092915050565b6000602082019050818103600083015261228f818461223c565b905092915050565b6000819050919050565b6122aa81612297565b81146122b557600080fd5b50565b6000813590506122c7816122a1565b92915050565b6000602082840312156122e3576122e2612117565b5b60006122f1848285016122b8565b91505092915050565b600073ffffffffffffffffffffffffffffffffffffffff82169050919050565b6000612325826122fa565b9050919050565b6123358161231a565b82525050565b6000602082019050612350600083018461232c565b92915050565b61235f8161231a565b811461236a57600080fd5b50565b60008135905061237c81612356565b92915050565b6000806040838503121561239957612398612117565b5b60006123a78582860161236d565b92505060206123b8858286016122b8565b9150509250929050565b6123cb81612297565b82525050565b60006020820190506123e660008301846123c2565b92915050565b60008060006060848603121561240557612404612117565b5b60006124138682870161236d565b93505060206124248682870161236d565b9250506040612435868287016122b8565b9150509250925092565b60006020828403121561245557612454612117565b5b60006124638482850161236d565b91505092915050565b612475816121a6565b811461248057600080fd5b50565b6000813590506124928161246c565b92915050565b600080604083850312156124af576124ae612117565b5b60006124bd8582860161236d565b92505060206124ce85828601612483565b9150509250929050565b600080fd5b600080fd5b7f4e487b7100000000000000000000000000000000000000000000000000000000600052604160045260246000fd5b61251a8261222b565b810181811067ffffffffffffffff82111715612539576125386124e2565b5b80604052505050565b600061254c61210d565b90506125588282612511565b919050565b600067ffffffffffffffff821115612578576125776124e2565b5b6125818261222b565b9050602081019050919050565b82818337600083830152505050565b60006125b06125ab8461255d565b612542565b9050828152602081018484840111156125cc576125cb6124dd565b5b6125d784828561258e565b509392505050565b600082601f8301126125f4576125f36124d8565b5b813561260484826020860161259d565b91505092915050565b6000806000806080858703121561262757612626612117565b5b60006126358782880161236d565b94505060206126468782880161236d565b9350506040612657878288016122b8565b925050606085013567ffffffffffffffff8111156126785761267761211c565b5b612684878288016125df565b91505092959194509250565b600080604083850312156126a7576126a6612117565b5b60006126b58582860161236d565b92505060206126c68582860161236d565b9150509250929050565b7f4e487b7100000000000000000000000000000000000000000000000000000000600052602260045260246000fd5b6000600282049050600182168061271757607f821691505b6020821081141561272b5761272a6126d0565b5b50919050565b7f4552433732313a20617070726f76656420717565727920666f72206e6f6e657860008201527f697374656e7420746f6b656e0000000000000000000000000000000000000000602082015250565b600061278d602c836121e7565b915061279882612731565b604082019050919050565b600060208201905081810360008301526127bc81612780565b9050919050565b7f4552433732313a20617070726f76616c20746f2063757272656e74206f776e6560008201527f7200000000000000000000000000000000000000000000000000000000000000602082015250565b600061281f6021836121e7565b915061282a826127c3565b604082019050919050565b6000602082019050818103600083015261284e81612812565b9050919050565b7f4552433732313a20617070726f76652063616c6c6572206973206e6f74206f7760008201527f6e6572206e6f7220617070726f76656420666f7220616c6c0000000000000000602082015250565b60006128b16038836121e7565b91506128bc82612855565b604082019050919050565b600060208201905081810360008301526128e0816128a4565b9050919050565b7f4552433732313a207472616e736665722063616c6c6572206973206e6f74206f60008201527f776e6572206e6f7220617070726f766564000000000000000000000000000000602082015250565b60006129436031836121e7565b915061294e826128e7565b604082019050919050565b6000602082019050818103600083015261297281612936565b9050919050565b7f455243373231456e756d657261626c653a206f776e657220696e646578206f7560008201527f74206f6620626f756e6473000000000000000000000000000000000000000000602082015250565b60006129d5602b836121e7565b91506129e082612979565b604082019050919050565b60006020820190508181036000830152612a04816129c8565b9050919050565b7f4e487b7100000000000000000000000000000000000000000000000000000000600052601160045260246000fd5b6000612a4582612297565b9150612a5083612297565b9250827fffffffffffffffffffffffffffffffffffffffffffffffffffffffffffffffff03821115612a8557612a84612a0b565b5b828201905092915050565b7f4d6178206c696d69740000000000000000000000000000000000000000000000600082015250565b6000612ac66009836121e7565b9150612ad182612a90565b602082019050919050565b60006020820190508181036000830152612af581612ab9565b9050919050565b7f53616c6520656e64000000000000000000000000000000000000000000000000600082015250565b6000612b326008836121e7565b9150612b3d82612afc565b602082019050919050565b60006020820190508181036000830152612b6181612b25565b9050919050565b6000612b7382612297565b9150612b7e83612297565b9250817fffffffffffffffffffffffffffffffffffffffffffffffffffffffffffffffff0483118215151615612bb757612bb6612a0b565b5b828202905092915050565b7f56616c75652062656c6f77207072696365000000000000000000000000000000600082015250565b6000612bf86011836121e7565b9150612c0382612bc2565b602082019050919050565b60006020820190508181036000830152612c2781612beb565b9050919050565b6000612c3982612297565b91507fffffffffffffffffffffffffffffffffffffffffffffffffffffffffffffffff821415612c6c57612c6b612a0b565b5b600182019050919050565b7f455243373231456e756d657261626c653a20676c6f62616c20696e646578206f60008201527f7574206f6620626f756e64730000000000000000000000000000000000000000602082015250565b6000612cd3602c836121e7565b9150612cde82612c77565b604082019050919050565b60006020820190508181036000830152612d0281612cc6565b9050919050565b7f4e487b7100000000000000000000000000000000000000000000000000000000600052603260045260246000fd5b7f4552433732313a206f776e657220717565727920666f72206e6f6e657869737460008201527f656e7420746f6b656e0000000000000000000000000000000000000000000000602082015250565b6000612d946029836121e7565b9150612d9f82612d38565b604082019050919050565b60006020820190508181036000830152612dc381612d87565b9050919050565b7f4552433732313a2062616c616e636520717565727920666f7220746865207a6560008201527f726f206164647265737300000000000000000000000000000000000000000000602082015250565b6000612e26602a836121e7565b9150612e3182612dca565b604082019050919050565b60006020820190508181036000830152612e5581612e19565b9050919050565b600081905092915050565b50565b6000612e77600083612e5c565b9150612e8282612e67565b600082019050919050565b6000612e9882612e6a565b9150819050919050565b7f5472616e73666572206661696c65642e00000000000000000000000000000000600082015250565b6000612ed86010836121e7565b9150612ee382612ea2565b602082019050919050565b60006020820190508181036000830152612f0781612ecb565b9050919050565b7f4552433732314d657461646174613a2055524920717565727920666f72206e6f60008201527f6e6578697374656e7420746f6b656e0000000000000000000000000000000000602082015250565b6000612f6a602f836121e7565b9150612f7582612f0e565b604082019050919050565b60006020820190508181036000830152612f9981612f5d565b9050919050565b600081905092915050565b6000612fb6826121dc565b612fc08185612fa0565b9350612fd08185602086016121f8565b80840191505092915050565b6000612fe88285612fab565b9150612ff48284612fab565b91508190509392505050565b7f4552433732313a206f70657261746f7220717565727920666f72206e6f6e657860008201527f697374656e7420746f6b656e0000000000000000000000000000000000000000602082015250565b600061305c602c836121e7565b915061306782613000565b604082019050919050565b6000602082019050818103600083015261308b8161304f565b9050919050565b7f4552433732313a207472616e73666572206f6620746f6b656e2074686174206960008201527f73206e6f74206f776e0000000000000000000000000000000000000000000000602082015250565b60006130ee6029836121e7565b91506130f982613092565b604082019050919050565b6000602082019050818103600083015261311d816130e1565b9050919050565b7f4552433732313a207472616e7366657220746f20746865207a65726f2061646460008201527f7265737300000000000000000000000000000000000000000000000000000000602082015250565b60006131806024836121e7565b915061318b82613124565b604082019050919050565b600060208201905081810360008301526131af81613173565b9050919050565b60006131c182612297565b91506131cc83612297565b9250828210156131df576131de612a0b565b5b828203905092915050565b7f4552433732313a20617070726f766520746f2063616c6c657200000000000000600082015250565b60006132206019836121e7565b915061322b826131ea565b602082019050919050565b6000602082019050818103600083015261324f81613213565b9050919050565b7f4552433732313a207472616e7366657220746f206e6f6e20455243373231526560008201527f63656976657220696d706c656d656e7465720000000000000000000000000000602082015250565b60006132b26032836121e7565b91506132bd82613256565b604082019050919050565b600060208201905081810360008301526132e1816132a5565b9050919050565b7f4e487b7100000000000000000000000000000000000000000000000000000000600052601260045260246000fd5b600061332282612297565b915061332d83612297565b92508261333d5761333c6132e8565b5b828204905092915050565b600061335382612297565b915061335e83612297565b92508261336e5761336d6132e8565b5b828206905092915050565b600081519050919050565b600082825260208201905092915050565b60006133a082613379565b6133aa8185613384565b93506133ba8185602086016121f8565b6133c38161222b565b840191505092915050565b60006080820190506133e3600083018761232c565b6133f0602083018661232c565b6133fd60408301856123c2565b818103606083015261340f8184613395565b905095945050505050565b6000815190506134298161214d565b92915050565b60006020828403121561344557613444612117565b5b60006134538482850161341a565b91505092915050565b7f4e487b7100000000000000000000000000000000000000000000000000000000600052603160045260246000fd5b7f4552433732313a206d696e7420746f20746865207a65726f2061646472657373600082015250565b60006134c16020836121e7565b91506134cc8261348b565b602082019050919050565b600060208201905081810360008301526134f0816134b4565b9050919050565b7f4552433732313a20746f6b656e20616c7265616479206d696e74656400000000600082015250565b600061352d601c836121e7565b9150613538826134f7565b602082019050919050565b6000602082019050818103600083015261355c81613520565b905091905056fe68747470733a2f2f7261772e67697468756275736572636f6e74656e742e636f6d2f6d617873696f736172652f6e6674636f736f65736f2f6d61696e2fa2646970667358221220cf2005d923f36e5f9413a28a493a912fce1acadd81030b3c44a2d32f8564e5a164736f6c634300080b0033",
  "immutableReferences": {},
  "source": "// contracts/GameItem.sol\r\n// SPDX-License-Identifier: MIT\r\npragma solidity 0.8.11;\r\n\r\nimport \"@openzeppelin/contracts/token/ERC721/ERC721.sol\";\r\nimport \"@openzeppelin/contracts/token/ERC721/extensions/ERC721Enumerable.sol\";\r\nimport \"@openzeppelin/contracts/utils/Counters.sol\";\r\n\r\ncontract MyNFTCollection is ERC721Enumerable {\r\n    uint256 public MAX_ELEMENTS = 500;\r\n    uint256 public PRICE = 0.01 ether;\r\n    address public CREATOR = 0xb302033EB1306D1D6531c15C1a364F6e8352a1E2;\r\n    uint256 public token_count;\r\n    using Counters for Counters.Counter;\r\n    Counters.Counter private _tokenIdTracker;\r\n\r\n    constructor() ERC721(\"My NFT\", \"MNFT\") {}\r\n\r\n    function _baseURI() internal view virtual override returns (string memory) {\r\n        return \"https://raw.githubusercontent.com/maxsiosare/nftcosoeso/main/\";\r\n    }\r\n\r\n    function _totalSupply() internal view returns (uint) {\r\n        return _tokenIdTracker.current();\r\n    }\r\n\r\n    function totalMint() public view returns (uint256) {\r\n        return _totalSupply();\r\n    }\r\n\r\n    function mint(address _to, uint256 _count) public payable {\r\n        uint256 total = _totalSupply();\r\n        require(total + _count <= MAX_ELEMENTS, \"Max limit\");\r\n        require(total <= MAX_ELEMENTS, \"Sale end\");\r\n        require(msg.value >= PRICE*_count, \"Value below price\");\r\n\r\n        for (uint256 i = 0; i < _count; i++) {\r\n            _mintAnElement(_to);\r\n        }\r\n    }\r\n\r\n    function _mintAnElement(address _to) private {\r\n        uint id = _totalSupply();\r\n        _tokenIdTracker.increment();\r\n        _safeMint(_to, id);\r\n    }\r\n\r\n    function withdrawAll() public {\r\n        (bool success, ) = CREATOR.call{value:address(this).balance}(\"\");\r\n        require(success, \"Transfer failed.\");\r\n    }\r\n}",
  "sourcePath": "C:\\Users\\vyaar\\Desktop\\pruebaboton1\\contracts\\MyNFTCollection.sol",
  "compiler": {
    "name": "solc",
    "version": "0.8.11+commit.d7f03943.Emscripten.clang"
  },
  "schemaVersion": "3.4.4",
  "updatedAt": "2021-12-30T18:29:20.524Z",
  "networkType": "ethereum",
  "devdoc": {
    "kind": "dev",
    "methods": {
      "approve(address,uint256)": {
        "details": "See {IERC721-approve}."
      },
      "balanceOf(address)": {
        "details": "See {IERC721-balanceOf}."
      },
      "getApproved(uint256)": {
        "details": "See {IERC721-getApproved}."
      },
      "isApprovedForAll(address,address)": {
        "details": "See {IERC721-isApprovedForAll}."
      },
      "name()": {
        "details": "See {IERC721Metadata-name}."
      },
      "ownerOf(uint256)": {
        "details": "See {IERC721-ownerOf}."
      },
      "safeTransferFrom(address,address,uint256)": {
        "details": "See {IERC721-safeTransferFrom}."
      },
      "safeTransferFrom(address,address,uint256,bytes)": {
        "details": "See {IERC721-safeTransferFrom}."
      },
      "setApprovalForAll(address,bool)": {
        "details": "See {IERC721-setApprovalForAll}."
      },
      "supportsInterface(bytes4)": {
        "details": "See {IERC165-supportsInterface}."
      },
      "symbol()": {
        "details": "See {IERC721Metadata-symbol}."
      },
      "tokenByIndex(uint256)": {
        "details": "See {IERC721Enumerable-tokenByIndex}."
      },
      "tokenOfOwnerByIndex(address,uint256)": {
        "details": "See {IERC721Enumerable-tokenOfOwnerByIndex}."
      },
      "tokenURI(uint256)": {
        "details": "See {IERC721Metadata-tokenURI}."
      },
      "totalSupply()": {
        "details": "See {IERC721Enumerable-totalSupply}."
      },
      "transferFrom(address,address,uint256)": {
        "details": "See {IERC721-transferFrom}."
      }
    },
    "version": 1
  },
  "userdoc": {
    "kind": "user",
    "methods": {},
    "version": 1
  }
}